:020000040800F2
:10000000100400200101000825070008210700084E
:10001000230700086D0100083508000800000000F3
:100020000000000000000000000000002907000898
:100030006F01000800000000270700082B070008D8
:100040001B0100081B0100081B0100081B01000820
:100050001B0100081B0100081B0100081B01000810
:100060001B0100081B0100081B0100081B01000800
:100070001B0100081B0100081B0100081B010008F0
:100080001B0100081B0100081B0100081B010008E0
:100090001B0100081B0100081B0100081B010008D0
:1000A0001B0100081B0100081B0100081B010008C0
:1000B0001B0100081B010008000000001B010008D4
:1000C0001B01000800000000000000001B010008E8
:1000D00000000000B9070008050800080000000043
:1000E0001B0100081B0100081B010008DFF80CD0F1
:1000F00000F02AF8004800477508000810040020A6
:100100000648804706480047FEE7FEE7FEE7FEE7B1
:10011000FEE7FEE7FEE7FEE7FEE7FEE77107000801
:10012000ED000008D2B201E000F8012B491EFBD21D
:1001300070470022F6E710B513460A4604461946F2
:10014000FFF7F0FF204610BD064C074D06E0E068C3
:1001500040F0010394E8070098471034AC42F6D30E
:10016000FFF7C8FFFC0800081C090008FEE77047FD
:1001700070B5044600F016F80546601C02D004482D
:100180000078044400F00EF8401BA042FAD370BD82
:1001900000000020C2680A4201D04161704701613D
:1001A0007047000001488068704700000000002090
:1001B0000248816802781144816070470000002085
:1001C00070B50D4D04464FF47A712878B1FBF0F00C
:1001D0000A490968B1FBF0F000F08EFA48B9102C1A
:1001E00007D200222146501E00F00AF800206C6061
:1001F00070BD012070BD0000000000200C00002038
:10020000F0B40E4B1B680C46C3F30223C3F1070581
:10021000042D00D90425191D072901D2002300E06F
:10022000DB1E012606FA05F1491E214099409E4039
:10023000761E16403143F0BC00F0FDBA0CED00E034
:100240002DE9F0470F46050061D0434E306800F0BD
:100250000700B84209D2306820F007003843306008
:10026000306800F00700B84251D128683B4C810744
:1002700012D5400703D5606840F4E06060602878DC
:10028000000703D5606840F4605060606068A9684A
:1002900020F0F000084360602878C00728D0686824
:1002A000012810D02168022810D0890700292EDAF1
:1002B000616821F0030101436160FFF773FF80462D
:1002C00041F288390DE021688903EFE78901EDE704
:1002D000FFF768FFA0EB0801494502D90320BDE8FC
:1002E000F0876068696800F00C00B0EB810FEFD117
:1002F000306800F00700B8420BD9306820F00700E2
:1003000038433060306800F00700B84201D0012067
:10031000E5E72878400705D56068E96820F4E060E3
:10032000084360602878000706D56068296920F4D2
:10033000605040EAC100606000F018F86168084A47
:10034000C1F30311515CC8400649086006480068C3
:10035000FFF736FF0020C2E70020024000100240F5
:10036000EC0800080C0000200400002012A185B059
:100370000FC98DE80F0014A0144A0068049051685A
:10038000134801F00C03042B10D0082B0ED1C1F33D
:100390008343C9031DF803000AD5516804AAC1F3B9
:1003A0004041515C0A4A5043B0FBF1F005B0704740
:1003B00008494843FAE70000020304050607080954
:1003C0000A0B0C0D0E0F101001020000001002406D
:1003D00000127A0000093D002DE9F84F040070D0AA
:1003E0002078C04DC00749D06868C0F3810001285B
:1003F00007D06868C0F38100022809D16868C0038B
:1004000006D52868800339D560680028E7D035E034
:100410006068B0F5803F0BD010B1B0F5A02F11D0BF
:10042000286820F480302860286820F4802002E0CA
:10043000286840F480302860606890B1FFF7B2FE11
:1004400006460AE0286840F480202860F0E700BFF4
:10045000FFF7A8FE801B642873D828688003F7D5AF
:100460000CE0FFF79FFE064605E000BFFFF79AFE8F
:10047000801B6428F0D828688003F7D420789A4E2F
:1004800080074FF001094FF0000839D5686810F077
:100490000C0F07D06868C0F38100022809D1686892
:1004A000C00306D42868800714D52069012808D124
:1004B00010E02069B0B1C6F80090FFF773FE074660
:1004C00005E00AE1FFF76EFEC01B0228C4D82868C9
:1004D0008007F7D52868616920F0F80040EAC1007C
:1004E00028600DE0C6F80080FFF75CFE074604E0D8
:1004F000FFF758FEC01B022823D828688007F7D4CE
:10050000207800072CD57948A169D9B1C0F80090AE
:10051000FFF748FE074604E0FFF744FEC01B022831
:100520000FD8686A8007F7D571484FF4FA51006810
:10053000B0FBF1F0009000BF0098411E0091FAD28C
:100540000EE080E0C0F80080FFF72CFE074604E0D4
:10055000FFF728FEC01B022875D8686A8007F7D409
:100560002078400760D5E8690027C00008D4E86912
:1005700040F08050E861E869012700F08050009069
:100580005C480168C90513D40168834641F4807151
:100590000160FFF707FE824606E000BFFFF702FE9C
:1005A000A0EB0A0064284ED8DBF80000C005F5D5A2
:1005B000E06801280AD008B1052813D0286A20F085
:1005C00001002862286A20F0040002E0286A40F056
:1005D00001002862E06841F2883B98B1FFF7E2FD34
:1005E00082460BE0286A40F004002862EEE700BF74
:1005F000FFF7D8FDA0EB0A0159455AD8286A8007B1
:10060000F6D50CE0FFF7CEFD824605E0FFF7CAFD08
:10061000A0EB0A0159454CD8286A8007F6D41FB1CF
:10062000E86920F08050E861E06988B36968C1F347
:100630008101022944D00228C6F8608004D0FFF767
:10064000B1FD044638E034E0FFF7ACFD074604E0B6
:10065000FFF7A8FDC01B02282BD828688001F7D41B
:10066000206AB0F5803F05D16868A16820F40030A9
:1006700008436860D4E908010843696821F47411EB
:1006800008436860C6F86090FFF78CFD044606E0FA
:1006900025E000BFFFF786FD001B022809D8286867
:1006A0008001F7D51BE000BFFFF77CFD001B02288F
:1006B00002D90320BDE8F88F28688001F4D40EE049
:1006C0000128F7D06868226A00F48031914204D191
:1006D000616A00F47010884201D00120EAE700202E
:1006E000E8E700000010024000004242800442425D
:1006F0000C0000200070004010B5401EB0F1807F5B
:1007000001D3012010BD4FF0E02460610F2160177C
:1007100000F091F80020A06107202061002010BDAA
:10072000FEE7FEE7704770477047FFF741BD10B521
:1007300090B028216846FFF7FCFC14210AA8FFF7B7
:10074000F8FC022000900120049010200024059065
:1007500007946846FFF740FE0F20CDE90A040C9489
:100760000D9400210AA80E94FFF76AFD10B010BD89
:100770000D48016841F00101016041680B4A1140D8
:10078000416001680A4A11400160016821F480213A
:100790000160416821F4FE0141604FF41F01816056
:1007A0000449C00308607047001002400000FFF8D1
:1007B000FFFFF6FE08ED00E0F0B50D4DC0B00024DF
:1007C0006E462F1D09E0386830552868641CC00843
:1007D000C00702D007A000F071F828684009C007E0
:1007E000F1D13055684600F069F840B0F0BD000026
:1007F000003801406F76657272756E206F636375A5
:100800007265640010B50A4BC0B0002069461A1F1B
:1008100002E01C680C54401C14686409E407F8D119
:1008200000220A54084600F049F840B010BD00000C
:1008300004440040FEE70907090E002804DB00F12C
:10084000E02080F80014704700F00F0000F1E02075
:1008500080F8141D704702E008C8121F08C1002A62
:10086000FAD170477047002001E001C1121F002A31
:10087000FBD1704708B5FFF75AFF0E4C606840F493
:1008800040106060E06840F40050E0600A49886908
:1008900040F01000886188694FF47A7500F010000C
:1008A00000900D212046FFF775FC2846FFF760FCFD
:1008B000F7E70000001001400010024010B50446A8
:1008C000002302E000F008F85B1C002C02D0E05C82
:1008D0000028F7D110BD000003490A681206FCD5B4
:1008E0000149091D08607047003801400000000000
:1008F0000000000001020304060708091C090008A3
:100900000000002010000000560800082C09000814
:10091000100000200004000066080008010000002C
:0C09200010000000000000000024F400A3
:04000005080000ED02
:00000001FF
