:020000040800F2
:100000007006002065010008451000084110000836
:1000100000000000000000000000000000000000E0
:10002000000000000000000000000000491000086F
:100030000000000000000000471000084B100008FE
:1000400077010008770100087701000877010008B0
:1000500077010008770100087701000877010008A0
:100060007701000877010008770100087701000890
:100070007701000877010008770100087701000880
:100080007701000877010008770100087701000870
:100090007701000877010008770100087701000860
:1000A0007701000877010008770100087701000850
:1000B000D91000080D110008770100087701000829
:1000C00000F002F800F03EF80CA030C80838241800
:1000D0002D18A246671EAB4654465D46AC4201D180
:1000E00000F030F87E460F3E0FCCB6460126334274
:1000F00000D0FB1AA246AB4633431847B4130000A6
:10010000D4130000103A02D378C878C1FAD8520745
:1001100001D330C830C101D504680C6070470000BD
:100120000023002400250026103A01D378C1FBD813
:10013000520700D330C100D50B6070471FB51FBDFB
:1001400010B510BD00F07BF91146FFF7F7FF01F085
:1001500041F900F093F903B4FFF7F2FF03BC00F09C
:1001600099F900000748804707480047FEE7FEE787
:10017000FEE7FEE7FEE7FEE704480549054A064BB1
:1001800070470000D7100008C10000087000002070
:10019000700600207002002070020020FEB50546A7
:1001A00010460C46184373D0AE468C460020AD1A5C
:1001B00001469C4167D36646002701243D46B61A96
:1001C0009D4102D313463A462124654676462F04C4
:1001D000360C3E432D0CB61A9D4104D3150C1B045E
:1001E0002B4312041034654676462F06360A3E43EA
:1001F0002D0AB61A9D4104D3150E1B022B43120281
:100200000834654676462F0736093E432D09B61A4F
:100210009D4104D3150F1B012B431201241D65467C
:100220007646AF07B6083E43AD08B61A9D4104D3E3
:10023000950F9B002B439200A41C65467646EF0762
:1002400076083E436D08B61A9D411AD392185B4159
:10025000641C16E00018764665464941B71A9D4170
:100260000191009009D36046B11A98418E468446A8
:10027000009801990025401C6941DD0752082A4376
:100280005B08641EE6D57246634603B0F0BDFFE727
:1002900000200146C046C0462A462346F5E701E055
:1002A00004C0091F0429FBD28B0701D50280801CE2
:1002B000C90700D00270704700290BD0C30702D0D5
:1002C0000270401C491E022904D3830702D5028014
:1002D000801C891EE3E70022EEE70022DFE7002210
:1002E00003098B422CD3030A8B4211D300239C4673
:1002F0004EE003460B433CD4002243088B4231D3EB
:1003000003098B421CD3030A8B4201D394463FE07E
:10031000C3098B4201D3CB01C01A524183098B42DE
:1003200001D38B01C01A524143098B4201D34B01C7
:10033000C01A524103098B4201D30B01C01A52412A
:10034000C3088B4201D3CB00C01A524183088B42B1
:1003500001D38B00C01A524143088B4201D34B009A
:10036000C01A5241411A00D201465241104670470C
:100370005DE0CA0F00D04942031000D34042534011
:1003800000229C4603098B422DD3030A8B4212D3D1
:10039000FC22890112BA030A8B420CD38901921103
:1003A0008B4208D3890192118B4204D389013AD040
:1003B000921100E08909C3098B4201D3CB01C01A15
:1003C000524183098B4201D38B01C01A5241430928
:1003D0008B4201D34B01C01A524103098B4201D316
:1003E0000B01C01A5241C3088B4201D3CB00C01A83
:1003F000524183088B4201D38B00C01A5241D9D29B
:1004000043088B4201D34B00C01A5241411A00D21B
:100410000146634652415B10104601D34042002B17
:1004200000D54942704763465B1000D3404201B596
:100430000020C046C04602BD7047704770477546F1
:1004400000F024F8AE46050069465346C008C000D7
:10045000854618B020B5FFF78FFE60BC002749081D
:10046000B6460026C0C5C0C5C0C5C0C5C0C5C0C54C
:10047000C0C5C0C5403D49008D46704710B5044613
:10048000C046C0462046FFF766FE10BD00487047D4
:100490001000002001491820ABBEFEE72600020034
:1004A0007047704701480068704700000000002056
:1004B00003480068034909784018014908607047FB
:1004C000000000200800002010B506480068102138
:1004D000084304490860002000F006F800F02EF8F8
:1004E000002010BD0020024070B50446104801787D
:1004F0007D20C000FFF7F3FE064631460D48006838
:10050000FFF7EDFE054600F07FFD002801D0012039
:1005100070BD042C07D200222146501E00F02EF898
:100520000548046001E00120F2E70020F0E7000048
:10053000080000200C0000200400002008B500BFC7
:100540000D488069012108430B498861084680698C
:10055000C007C00F009000BF00BF00BF0846C069C1
:10056000090408430449C8610846C06909040840F1
:10057000009000BF00BF08BD0010024070B50446E7
:100580000D4616462946204600F04CFE70BD000080
:10059000F8B504460026002501210904206808401A
:1005A00088427AD100276048C069090308400028C2
:1005B0000DD100BF5C48C06908435B49C86108466B
:1005C000C06909040840009000BF00BF01275748D8
:1005D0000068FF2101310840002816D15348006807
:1005E000084352490860FFF75DFF064606E0FFF743
:1005F00059FF801B642801D90320F8BD4B480068CF
:10060000FF21013108400028F1D04748006A03214A
:10061000090208400546002D2DD060680840A84218
:1006200029D04148006A884305463F48006A0121B5
:10063000090408433C4908620846006A012109048C
:1006400088433949086208460562E807C00F002858
:1006500011D0FFF727FF064607E0FFF723FF801BB7
:100660003349884201D90320C7E72F48006A022195
:1006700008400028F1D02C48006A03210902884371
:100680006168084328490862012F05D10846C069FE
:10069000090488432449C86100BF2078C007C00FFF
:1006A000002807D02048006B80088000A16808431C
:1006B0001D490863022120680840022808D11A4811
:1006C000006B032109048843E16808431649086365
:1006D000202120680840202807D11348006B1021F2
:1006E00088432169084310490863012149042068AF
:1006F0000840884207D10C48006B80218843A169DB
:10070000084309490863012189022068084088429A
:1007100007D10548006B40218843616908430249BD
:100720000863002069E700000010024000700040EC
:100730008813000070B504460D46002C01D101203D
:1007400070BD58480068C007C00FA8420ED2554877
:100750000068400840002843524908600846006885
:10076000C007C00FA84201D00120E9E7022120689C
:100770000840022814D1042120680840042807D129
:1007800049484068072109028843401846494860A3
:1007900045484068F0218843A168084342494860C1
:1007A0002078C007C00F002847D06068012808D112
:1007B0003D480068012149040840002821D101205A
:1007C000BEE76068022808D1374800680121490661
:1007D0000840002815D10120B2E76068032808D13D
:1007E0003148406B012109040840002809D101204B
:1007F000A6E72D48006802210840002801D1012009
:100800009EE72948406880088000616808432649BF
:100810004860FFF747FE064607E0FFF743FE801BF0
:100820002249884201D903208AE71F4840680C21E9
:100830000840616889008842EFD11A480068C00703
:10084000C00FA8420ED9174800684008400028434E
:100850001449086008460068C007C00FA84201D0CC
:1008600001206DE7042120680840042808D10E48C3
:100870004068072109028843E16808430A49486043
:1008800000F020F808494968F02211400909084A97
:10089000515CC840074908600020FFF725FE002092
:1008A0004EE70000002002400010024088130000C4
:1008B000981400080C0000200148006870470000F0
:1008C0000C000020F0B589B035A001460EC9C06803
:1008D00005AC0EC4089036A001460EC9C06801AC34
:1008E0000EC404900025002400270026002000905C
:1008F000334845680C202840002849D0042804D0FB
:10090000082805D00C2842D13EE02E48009042E055
:100910000F2080042840800C05A90E5C2848C06A7E
:100920000007000F01A90C5C0320C003284001212F
:10093000090488420AD12246002322481946FFF7BB
:100940002DFC314600F00EFC07461BE00320C003DF
:1009500028400321C90388420AD1224600231A48AD
:100960001946FFF71BFC314600F0FCFB074609E087
:100970002246002313481946FFF710FC314600F0C9
:10098000F1FB0746009706E00F48009003E000BF28
:100990000C48009000BF00BF009809B0F0BD0000F7
:1009A00002030405060708090A0B0C0D0E0F1010B0
:1009B0000102030405060708090A0B0C0D0E0F10AF
:1009C0000010024000127A00006CDC02FEB5044602
:1009D000002C01D10120FEBD2078C007C00F0028E7
:1009E00072D0FC4840680C21084004280CD0F9481B
:1009F00040680840082813D1F64840684903084079
:100A00000121090488420BD1F24800680121490400
:100A1000084000286BD06068002868D10120DAE720
:100A200000BF6068012807D1EA4800680121090475
:100A30000843E849086031E0606800280ED1E548C5
:100A40000068012109048843E249086008460068FB
:100A5000012189048843DF4908601FE06068052898
:100A60000ED1DC480068012189040843D949086097
:100A700008460068012109040843D64908600DE0D2
:100A8000D4480068012109048843D2490860084617
:100A90000068012189048843CE49086000BF60686E
:100AA000002812D0FFF7FEFC054606E0FFF7FAFC2F
:100AB000401B642801D903208DE7C6480068012146
:100AC000490408400028F1D011E0FFF7EBFC05468F
:100AD00006E0FFF7E7FC401B642801D903207AE712
:100AE000BC4800680121490408400028F1D10221D6
:100AF00020680840022862D1B64840680C210840AE
:100B000000280CD0B3484068084008281CD1B148E0
:100B10004068490308400121C903884214D1AD4807
:100B2000006802210840002804D0E068012801D0B4
:100B3000012050E7A7480068F82188432169C900CF
:100B40000843A44908603AE0E068002820D0A148A2
:100B50000068012108439F490860FFF7A3FC054690
:100B600006E0FFF79FFC401B022801D9032032E773
:100B700098480068022108400028F2D09548006893
:100B8000F82188432169C90008439249086016E0AA
:100B900090480068400840008E490860FFF782FCDA
:100BA000054606E0FFF77EFC401B022801D9032022
:100BB00011E788480068022108400028F2D1082186
:100BC00020680840082831D1E069002817D0814802
:100BD000406A012108437F494862FFF763FC0546EC
:100BE00006E0FFF75FFC401B022801D90320F2E674
:100BF0007848406A022108400028F2D016E0754883
:100C0000406A4008400073494862FFF74BFC0546C4
:100C100006E0FFF747FC401B022801D90320DAE673
:100C20006C48406A022108400028F2D10421206863
:100C30000840042872D1002001906648C0698906E6
:100C4000084000280ED100BF6248C06908436149CE
:100C5000C8610846C06909040840009000BF00BF91
:100C6000012001905C480068FF2101310840002804
:100C700016D159480068084357490860FFF712FC2D
:100C8000054606E0FFF70EFC401B642801D903204F
:100C9000A1E651480068FF21013108400028F1D049
:100CA00000BFA068012806D14A48006A0121084314
:100CB000484908622AE0A06800280BD14548006A2C
:100CC0004108490043480162006A042188434149C0
:100CD00008621BE0A06805280CD13E48006A042188
:100CE00008433C4908620846006A01210843394923
:100CF00008620BE03748006A400840003549086246
:100D00000846006A042188433249086200BFA0688F
:100D1000002813D0FFF7C6FB054608E02BE0FFF7DD
:100D2000C1FB401B2D49884201D9032053E62948C5
:100D3000006A022108400028F1D011E0FFF7B2FB61
:100D4000054607E0FFF7AEFB411B2448814201D96D
:100D5000032040E61F48006A022108400028F1D124
:100D60000198012806D11B48C06901210907884361
:100D70001849C86100BF10212068084010285FD1C1
:100D8000606901282CD11348406B042108431149A4
:100D900048630846406B012108430E494863FFF74A
:100DA00081FB054606E0FFF77DFB401B022801D9C9
:100DB000032010E60748406B022108400028F2D0CB
:100DC0000448406BF8218843A169C90008430149E0
:100DD000486335E0001002400070004088130000B6
:100DE0006069401D00280FD18648406B042188436C
:100DF000844948630846406BF8218843A169C900CB
:100E00000843804948631BE07E48406B0421084347
:100E10007C4948630846406B400840004863FFF740
:100E200041FB054606E0FFF73DFB401B022801D9C8
:100E30000320D0E57348406B022108400028F2D11E
:100E4000202120680840202852D16E4840680C219B
:100E500008400C280AD06B4840680840082811D187
:100E6000684840684903084088420BD16548406B98
:100E700001210904084000283AD0206A012837D00F
:100E80000120A8E5206A002819D05E48406B0121A6
:100E9000090408435B494863FFF704FB054606E085
:100EA000FFF700FB401B022801D9032093E55548BA
:100EB000406B0121090408400028F1D018E0514896
:100EC000406B0121090488434E494863FFF7EAFA61
:100ED000054606E0FFF7E6FA401B022801D9032089
:100EE00079E54848406B0121090408400028F1D108
:100EF000606A00284FD0434840680C210840082809
:100F000064D0606A022847D13E4800680121090682
:100F100088433C490860FFF7C5FA054606E0FFF73D
:100F2000C1FA401B022801D9032054E53548006866
:100F30000121490608400028F1D100BF3148C06AAC
:100F400000090001216B08432E49C862A16AE06ACA
:100F500008432C4949687B22D2039143084329491D
:100F6000486000BF0846006801210906084325497A
:100F70000860FFF797FA054606E0FFF793FA401B73
:100F8000022801D9032026E51E48006801214906F0
:100F900008400028F1D033E01A4800680121090612
:100FA000884318490860FFF77DFA054606E0FFF719
:100FB00079FA401B022801D903200CE5114800688A
:100FC0000121490608400028F1D119E0606A012892
:100FD00000D100E50B484668C76A0320C0033040D3
:100FE000A16A88420AD13907090F206B814205D1D5
:100FF0000F2080043040E16A884201D00120EAE4F9
:101000000020E8E40010024070B504462546681E42
:101010000949884201D901200CE0681E074948614E
:101020000321081F00F0FEF8002004498861072012
:101030000861002070BD0000FFFFFF0000E000E03D
:1010400000BFFEE770477047704710B5FFF730FAF2
:1010500010BD00B599B034210CA8FFF73EF900206F
:10106000089009900A900B901C2101A8FFF735F910
:1010700022200C9001200F9014901020109002203C
:10108000159081031691C1041791002118910CA8A5
:10109000FFF79CFC002801D0FFF703FA0720089017
:1010A0000220099000200A900B90012108A8FFF768
:1010B00041FB002801D0FFF7F4F901204004019022
:1010C0000020079001A8FFF763FA002801D0FFF77E
:1010D000E8F919B000BD704710B5C0B0002404E0B5
:1010E0000948808869460855641C07482038C0694B
:1010F0008006C00F0028F3D169460855684600F005
:1011000093F940B010BD00002044004010B5C0B0BD
:1011100000240EE00E48808869460855641C0C487F
:101120002038C0690007C00F002802D009A000F0D5
:101130007BF907482038C0698006C00F0028E9D134
:1011400069460855684600F08BF940B010BD0000B4
:10115000204800406F76657272756E206F6363750C
:1011600072656400F8B582B28BB2040C0D0C1046A7
:101170005843002126465E43370C360480197941D6
:1011800016466E43370C36048019794126466E4365
:101190008919F8BD002805DBC206D20E0121914055
:1011A000014A11607047000000E100E010B500281E
:1011B00019DB1A4A03231B02D21883089B00D2585A
:1011C0008307DC0EFF23A3409A438B071B0E840783
:1011D000E40EA3401A43114B032424021B19840874
:1011E000A4001A5118E00E4A03071B0F083B9B0886
:1011F0009B00D2588307DC0EFF23A3409A438B0742
:101200001B0E8407E40EA3401A43054B0407240F6A
:10121000083CA408A4001A5110BD000000E100E041
:101220001CED00E010B5002819DB1A4A03231B024D
:10123000D21883089B00D2588307DC0EFF23A340FB
:101240009A438B071B0E8407E40EA3401A43114BED
:10125000032424021B198408A4001A5118E00E4A22
:1012600003071B0F083B9B089B00D2588307DC0E2B
:10127000FF23A3409A438B071B0E8407E40EA34071
:101280001A43054B0407240F083CA408A4001A5174
:1012900010BD000000E100E01CED00E010B52448A6
:1012A000C0690121490408432149C86108464069D1
:1012B0000121490408431E4948610920C00600680D
:1012C0000521490708430921C90608600846406A04
:1012D0000102090A0920C0064162406A112109067B
:1012E00008430921C9064862FFF7E6FA0446E121EE
:1012F0004902FEF7F4FF0F49C860084600682C2138
:1013000008430C49086008464068891408430949A5
:1013100048601C20FFF73EFF01211C20FFF746FF1D
:1013200004480068012108430249086010BD00001C
:10133000001002400044004010B52348C06901215C
:10134000890408432049C861084640690121C9044D
:1013500008431D4948611D480068052149050843A7
:101360001A490860FFF7A8FA0446E1214902FEF78E
:10137000B6FF1749C860084600680C2108431449A5
:1013800008600846006820210843114908600846A3
:101390000068012108430E4908601D20FFF7FAFE8E
:1013A00002211D20FFF702FF0848406AFF2101319A
:1013B0000843064948620846406A01210903084378
:1013C0000249486210BD00000010024000080048B9
:1013D00000480040FFF778F8FFF73BFEFFF75EFF9D
:1013E000FFF7AAFF0748006855210903084305498C
:1013F000086005A000F018F806A000F031F800BF62
:10140000FEE70000000800485374617274696E675B
:101410000D0A000073746D3332663020737461728C
:101420007465640A0D00000010B50346002403E053
:10143000185D00F007F8641C002B02D0185D00282E
:10144000F6D110BD00BF0549C969802211400029AD
:10145000F9D002492031088170470000004800405F
:1014600010B50346002403E0185D00F007F8641C83
:10147000002B02D0185D0028F6D110BD00BF054931
:10148000C969802211400029F9D002492031088120
:101490007047000000440040000000000000000011
:1014A000010203040607080900000000010203040A
:1014B000D014000800000020100000000401000803
:1014C000E014000810000020600600002001000861
:1014D00000000000040000000100000000127A007B
:04000005080000C12E
:00000001FF
