:020000040800F2
:1000000010040020D5000008C3090008C109000839
:1000100000000000000000000000000000000000E0
:10002000000000000000000000000000C7090008F8
:100030000000000000000000C5090008C909000810
:10004000E7000008E7000008E7000008E7000008F4
:10005000E7000008E7000008E7000008E7000008E4
:10006000E7000008E7000008E7000008E7000008D4
:10007000E7000008E7000008E7000008E7000008C4
:10008000E7000008E7000008E7000008E7000008B4
:10009000E7000008E7000008E7000008E7000008A4
:1000A000E7000008E7000008E7000008E700000894
:1000B000350A0008650A0008E7000008E7000008A4
:1000C0000348854600F08EF8004800478D0C000874
:1000D000100400200448804704480047FEE7FEE77C
:1000E000FEE7FEE7FEE7FEE7330A0008C10000086E
:1000F00030B50B46014600202022012409E00D46C0
:10010000D5409D4205D31D469540491B2546954047
:1001100040191546521E002DF1DC30BDF0B51FB45C
:100120000646002082B005464024019100901BE065
:10013000019922460F46304600F020F8049A059BAC
:10014000801A994110D310461946224600F039F81A
:10015000361A8F410197224601200021009F00F0AE
:1001600030F838184D4100902046641E0028DFDC2E
:10017000019B00982946324607B0F0BD10B5202AF1
:1001800004DB0846203AD040002110BD0B46D34086
:10019000D0402024A21A91400843194610BDD2B283
:1001A00001E00270401C491EFBD270470022F6E7B6
:1001B00010B513460A4604461946FFF7F0FF2046DD
:1001C00010BD10B5202A04DB0146203A91400020E2
:1001D00010BD914020239C1A0346E34019439040F0
:1001E00010BD0000064C0125064E05E0E36807CC73
:1001F0002B430C3C98471034B442F7D3FFF764FF0D
:100200004C0D00086C0D0008014880687047000024
:1002100000000020024881680278891881607047D8
:100220000000002010B5064801681022114301604B
:10023000002000F007F800F027F8002010BD0000B3
:100240000020024070B504460D4D7D202978C00085
:10025000FFF74EFF01460B480068FFF749FF00F02B
:1002600097FB002809D1042C07D200222146401E0A
:1002700000F01EF800206C6070BD012070BD000011
:10028000000000200C00002008B508488169012208
:1002900011438161816911400091C26901040A43DF
:1002A000C261C0690840009008BD00000010024013
:1002B00010B500F043FC10BDF8B504460068434D8E
:1002C000C00352D5E8690026C00007D4E9692804B4
:1002D0000143E961E9690140012600913C48016858
:1002E000C90510D40168821511430160FFF78CFF26
:1002F000074604E0FFF788FFC01B642824D8344871
:100300000068C005F6D5286A03273F02384020D090
:100310006168394081421CD0286A2A6AB8430121A9
:1003200009040A432A622A6A8A432A622862C007A9
:100330000FD0FFF769FF009008E0FFF765FF009915
:10034000411A2448814201D90320F8BD286A800758
:10035000F3D5286A6168B84308432862002E04D0A8
:10036000E869012109078843E8612078C00705D0C2
:10037000286BA168800880000843286320788007E4
:1003800006D5286B032109048843E16808432863E4
:100390002078800605D5286B102188432169084301
:1003A00028632068800305D5286B80218843A169D4
:1003B000084328632088400505D5286B40218843E1
:1003C0006169084328630020F8BD00000010024066
:1003D0000070004088130000F8B50F4606005FD09B
:1003E0003D4D2868C007C00FB84209D228684008B0
:1003F0004000384328602868C007C00FB8424FD17A
:100400003068364C81070CD5400704D56068072159
:100410000902084360606068F0218843B1680843BE
:1004200060603078C0072CD07068012810D0022896
:1004300011D0032812D021688907002930DA6168B9
:100440008908890001436160FFF7DEFE009011E03A
:1004500021688903F1E721688901EEE7616BC9032F
:10046000EBE7FFF7D1FE0099411A1D48814201D9FF
:100470000320F8BD60680C2108407168890088423B
:10048000EFD12868C007C00FB8420BD928684008D0
:100490004000384328602868C007C00FB84201D028
:1004A0000120F8BD3078400706D5606807210902B1
:1004B0008843F1680843606000F01EF86168094AEB
:1004C0000906090F515CC840074908600020FFF782
:1004D000B9FE0020F8BD00000020024000100240DC
:1004E000881300003C0D00080C0000200148006843
:1004F000704700000C00002030B519A30FCB89B065
:100500006C460FC41AA30FCB0FC41D4A51680C20B0
:100510000B4603401B48042B05D01B4D082B04D071
:100520000C2B00D1284609B030BD8B021B0F6C4646
:10053000E45CD26A04AB1207120FC9039A5C890FFC
:10054000022901D0032901D0002301E0002328461D
:100550000021FFF7E3FD214600F0AAFAE3E70000DF
:1005600002030405060708090A0B0C0D0E0F1010F4
:100570000102030405060708090A0B0C0D0E0F10F3
:100580000010024000127A00006CDC02FEB504008C
:1005900070D02078F94EFA4DC00748D0686800073F
:1005A000800F01281FD068680007800F022804D13F
:1005B0006868C003800F022815D06168012919D02E
:1005C00001208004002901D0052917D02968B143F2
:1005D0002960296881432960606800281BD0FFF7E3
:1005E00013FE074613E02868800320D560680028C2
:1005F000CED01CE0286830432860EDE7296801432D
:100600002960F7E7FFF700FEC01B642870D8286850
:100610008003F7D50BE0FFF7F7FD074604E0FFF78F
:10062000F3FDC01B6428F1D828688003F7D4207834
:1006300080073FD568680007800F14D068680007FE
:10064000800F022804D16868C003800F01280AD0F7
:10065000E068002828681ED0012108432860FFF7C1
:10066000D3FD07460CE0286880070CD5E068012818
:1006700000D108E080E1FFF7C7FDC01B0228C5D804
:1006800028688007F7D52868F82188432169C900C0
:10069000084328600EE0400840002860FFF7B4FDE2
:1006A000074604E0FFF7B0FDC01B0228AED828685B
:1006B0008007F7D42078000723D5E0690028686A0E
:1006C0000FD0012108436862FFF79EFD074604E052
:1006D000FFF79AFDC01B022898D8686A8007F7D5F3
:1006E0000FE0400840006862FFF78EFD074605E016
:1006F000C3E0FFF789FDC01B022887D8686A80071E
:10070000F7D4207804274007002861DA0020019000
:10071000E869C00008D4E969B8060143E961E969FC
:10072000014001200091019096480168C90511D44B
:100730000168821511430160FFF766FD009005E036
:10074000FFF762FD0099401A642898D88D48006828
:10075000C005F5D5A06801280AD0002801D00528D9
:1007600011D0286A400840002862286AB84302E095
:10077000286A012108432862A068002812D0FFF7E8
:1007800043FD00900AE0286A38432862F0E7FFF74B
:100790003BFD0099411A7C4881426ED8286A800747
:1007A000F5D50DE0FFF730FD009006E0FFF72CFDDA
:1007B0000099411A744881425FD8286A8007F5D4AD
:1007C0000198002804D0E969012000078143E9610C
:1007D0002078C00635D5606901280CD0401D686BB3
:1007E00024D038436863686B400840006863FFF7B3
:1007F0000BFD074622E0686B38436863686B012194
:1008000008436863FFF700FD074604E0FFF7FCFCC0
:10081000C01B022831D8686B8007F7D5686BF821B8
:100820008843A169C900084368630AE0B843686364
:10083000F4E7FFF7E9FCC01B02281ED8686B8007AD
:10084000F7D42078800637D568680007800F032822
:1008500014D068680007800F022804D16868C003BC
:10086000800F03280AD0206A0028686B16D0304316
:100870006863FFF7C9FC06460CE062E0686BC003E2
:100880001AD5206A012877D116E0FFF7BDFC801B3E
:10089000022856D8686BC003F7D50DE0B0436863F3
:1008A000FFF7B2FC064604E0FFF7AEFC801B02280F
:1008B00047D8686BC003F7D4606A002866D06968BF
:1008C0000907890F022942D0012636060228286826
:1008D00005D0B0432860FFF797FC044633E0B043EF
:1008E0002860FFF791FC074604E0FFF78DFCC01B72
:1008F000022826D828688001F7D4E86A216B00090D
:1009000000010843E862A16AE06A084369687B2243
:10091000D203914308436860286830432860FFF79A
:1009200073FC044604E0FFF76FFC001B022808D8A4
:1009300028688001F7D529E0FFF766FC001B022834
:1009400001D90320FEBD28688001F5D41EE00128EE
:10095000F8D06868E96A0322D203A36A02409A4287
:100960000AD10907226B090F914205D10F21890491
:100970000840E16A884209D00120FEBD0000010064
:100980000010024000700040881300000020F4E7CF
:10099000094910B5401E884201D9012010BD074CFD
:1009A00060610321081F00F0C9F80020A061072042
:1009B0002061002010BD0000FFFFFF0000E000E00C
:1009C000FEE770477047704710B5FFF723FC10BD76
:1009D00030B599B034216846FFF7E8FB00240D9448
:1009E0000E940F941C2111A81094FFF7DFFB222016
:1009F0000090012003900890022510200995049092
:100A0000C0020A9040010B900C946846FFF7BEFDAF
:100A100007200D900F9401210E9510940DA8FFF75B
:100A2000DBFC28041190179411A8FFF745FC19B0BE
:100A300030BD704710B50A4AC0B000206946084B67
:100A4000203A02E09C880C54401CD4696409E407F5
:100A5000F8D100220A54084600F040F940B010BD19
:100A600020440040F0B50D4FC0B000246E460B4D41
:100A7000203709E0B8883055E869641CC008C00711
:100A800002D007A000F02AF9E8694009C007F1D1B7
:100A90003055684600F03AF940B0F0BD00480040DB
:100AA0006F76657272756E206F6363757265640030
:100AB000F8B5040C8BB2264682B25E430D0C10468C
:100AC000370C5843360480190021794116466E438D
:100AD000370C36048019794126466E438919F8BDD2
:100AE000002805DBC106C90E0120884001490860C5
:100AF0007047000000E100E08307FF22DB0E9A4010
:100B00008907090E9940002808DB830809489B00E3
:100B10001B18186890430843186070470007000FBF
:100B20000838830804489B001B18D8699043084381
:100B3000D861704700E400E000ED00E08307FF2289
:100B4000DB0E9A408907090E9940002808DB8308CC
:100B500009489B001B1818689043084318607047A9
:100B60000007000F0838830804489B001B18D86949
:100B700090430843D861704700E400E000ED00E0D6
:100B800002E008C8121F08C1002AFAD17047704756
:100B9000002001E001C1121F002AFBD170470000B4
:100BA00010B51A48C269012149040A43C261426969
:100BB0000A4342610920C006016805225207114319
:100BC0000160416A0902090A4162416A1122120662
:100BD00011434162FFF78AFCE1214902FFF788FADD
:100BE0000B4CE06020682C21084320606068A11451
:100BF000084360601C20FFF773FF01211C20FFF7F2
:100C00007BFF206801210843206010BD00100240D6
:100C10000044004010B51A48C169012292041143F2
:100C2000C1614169520011434161164C20680521A0
:100C3000490508432060FFF759FCE1214902FFF70D
:100C400057FA1149C86008680C2210430860086808
:100C500020221043086008680122104308601D200C
:100C6000FFF73EFF02211D20FFF746FF606AFF21CC
:100C7000013108436062606A09010843606210BD87
:100C8000001002400008004800480040FFF7CAFA80
:100C9000FFF79EFEFFF784FFFFF7BCFF06480168E1
:100CA000552212031143016004A000F017F806A0BA
:100CB00000F02CF8FEE70000000800485374617251
:100CC00074696E670D0A000073746D3332663020EC
:100CD000737461727465640A0D00000010B50446F7
:100CE000002302E000F008F85B1C002C02D0E05C5E
:100CF0000028F7D110BD00000349CA691206FCD5CF
:100D000001492031088170470048004010B5044671
:100D1000002302E000F008F85B1C002C02D0E05C2D
:100D20000028F7D110BD00000349CA691206FCD59E
:100D30000149203108817047004400400000000054
:100D40000000000001020304060708096C0D0008FA
:100D50000000002010000000800B00087C0D00083F
:100D60001000002000040000900B000801000000AB
:0C0D7000040000000000000000127A00E7
:04000005080000C12E
:00000001FF
