:020000040800F2
:100000009004002001010008730B0008DD0A0008BD
:10001000710B00086D0100083D0D00080000000094
:10002000000000000000000000000000770B000846
:100030006F01000800000000750B0008790B000834
:100040001B0100081B0100081B0100081B01000820
:100050001B0100081B0100081B0100081B01000810
:100060001B0100081B0100081B0100081B01000800
:100070001B0100081B0100081B0100081B010008F0
:100080001B0100081B0100081B0100081B010008E0
:100090001B0100081B0100081B0100081B010008D0
:1000A0001B0100081B0100081B0100081B010008C0
:1000B0001B0100081B0100081B0100081B010008B0
:1000C0001B0100081B0100081B0100081B010008A0
:1000D0001B010008C10C00080D0D00081B010008E1
:1000E0001B0100081B0100081B010008DFF80CD0F1
:1000F00000F02AF800480047B90D000890040020DD
:100100000648804706480047FEE7FEE7FEE7FEE7B1
:10011000FEE7FEE7FEE7FEE7FEE7FEE7C10B0008AD
:10012000ED000008D2B201E000F8012B491EFBD21D
:1001300070470022F6E710B513460A4604461946F2
:10014000FFF7F0FF204610BD064C074D06E0E068C3
:1001500040F0010394E8070098471034AC42F6D30E
:10016000FFF7C8FFE00E0008000F0008FEE7704729
:1001700070B5044600F00AF90546601C02D0044838
:100180000078044400F002F9401BA042FAD370BD8D
:10019000000000202DE9F84FDFF8B891002409F1A4
:1001A000040A0AF1040B23460F270BF1040EC9E0E1
:1001B0000125A5402A40AA427DD1674ED1F804C04E
:1001C000ACEB0608B44532D014DCBCF1030F3AD0D6
:1001D00009DCBCF1000F2AD0BCF1010F1CD0BCF12E
:1001E000020F31D11DE0BCF1110F17D0BCF1120F7D
:1001F0002AD119E0B8F5881F19D006DCB8F5803F80
:1002000015D0B8F5801F1FD111E0B8F5001F0ED032
:10021000B8F5041F18D10AE0CB6815E0CB681B1DA8
:1002200012E0CB6808330FE0CB680C330CE08B682E
:100230002BB1012B4FF0080303D0456104E00423E8
:1002400002E0056100E00023FF2A01D8064601E034
:1002500000F104064FEA840501D9A5F12005D6F87E
:10026000008007FA05FC28EA0C0803FA05F548EABD
:100270000508C6F800804D68ED0062D5374DAE69BF
:1002800046F00106AE61AD6924F0030605F00105F4
:100290000095334D06EB050CDCF80850A607360F29
:1002A00007FA06F825EA0805DFF8B880404503D1CB
:1002B0004FF0000817E044E0DFF8AC80404502D181
:1002C0004FF001080FE0DFF8A480404502D14FF065
:1002D000020808E0DFF89880404502D14FF003089B
:1002E00001E04FF0040808FA06F848EA0508CCF8DF
:1002F00008804D68D9F80060ED034D4601D51643DE
:1003000000E096432E604D68DAF80060AD03554674
:1003100001D5164300E096432E604D68DBF800607F
:10032000ED025D4601D5164300E096432E604D6810
:10033000DEF80060AD02754601D5164300E0964335
:100340002E60641C0D682A46E5407FF431AFBDE89D
:10035000F88F00000004014000001110001002405E
:100360000000014000080140000C01400010014065
:1003700000140140C2680A4201D041617047016126
:1003800070470AB1016170470904FBE701488068C2
:100390007047000000000020024881680278114484
:1003A0008160704700000020074810B5016841F0E7
:1003B00010010160032000F067F8002000F006F84B
:1003C00000F024F8002010BD0020024070B50D4D53
:1003D00004464FF47A712878B1FBF0F00A490968B5
:1003E000B1FBF0F000F0DEFA48B9102C07D2002281
:1003F0002146501E00F028F800206C6070BD0120DE
:1004000070BD0000000000200C0000200C4808B562
:10041000816941F001018161816901F0010100916F
:10042000C16941F08051C161C06900F08050009005
:100430000448416821F0E06141F08061416008BDFD
:100440000010024000000140F0B40E4B1B680C4647
:10045000C3F30223C3F10705042D00D90425191D98
:10046000072901D2002300E0DB1E012606FA05F170
:10047000491E214099409E40761E16403143F0BCF3
:1004800000F07ABC0CED00E0064900F007020868B5
:100490004FF6FF03184040EA0220034A1043086069
:1004A000704700000CED00E00000FA052DE9F04770
:1004B0000F46050061D0434E306800F00700B84297
:1004C00009D2306820F0070038433060306800F00F
:1004D0000700B84251D128683B4C810712D540072C
:1004E00003D5606840F4E06060602878000703D5B9
:1004F000606840F4605060606068A96820F0F000B7
:10050000084360602878C00728D06868012810D0A8
:100510002168022810D0890700292EDA616821F0AD
:10052000030101436160FFF731FF804641F28839E2
:100530000DE021688903EFE78901EDE7FFF726FF6A
:10054000A0EB0801494502D90320BDE8F0876068A7
:10055000696800F00C00B0EB810FEFD1306800F05B
:100560000700B8420BD9306820F0070038433060EC
:10057000306800F00700B84201D00120E5E7287894
:10058000400705D56068E96820F4E06008436060D2
:100590002878000706D56068296920F4605040EA91
:1005A000C100606000F038F86168084AC1F30311C7
:1005B000515CC8400649086006480068FFF706FF1E
:1005C0000020C2E70020024000100240C80E0008D0
:1005D0000C00002004000020044805490068496818
:1005E000044AC1F30221515CC84070470C0000204E
:1005F00000100240D80E0008044805490068496808
:10060000044AC1F3C221515CC84070470C0000206D
:1006100000100240D80E000812A185B00FC98DE865
:100620000F0014A0144A006804905168134801F0A8
:100630000C03042B10D0082B0ED1C1F38343C90344
:100640001DF803000AD5516804AAC1F34041515C6A
:100650000A4A5043B0FBF1F005B0704708494843DF
:10066000FAE7000002030405060708090A0B0C0D4F
:100670000E0F1010010200000010024000127A005C
:1006800000093D002DE9F84F040070D02078C04DDE
:10069000C00749D06868C0F38100012807D06868A6
:1006A000C0F38100022809D16868C00306D5286814
:1006B000800339D560680028E7D035E06068B0F580
:1006C000803F0BD010B1B0F5A02F11D0286820F4D6
:1006D00080302860286820F4802002E0286840F4F8
:1006E00080302860606890B1FFF750FE06460AE04F
:1006F000286840F480202860F0E700BFFFF746FE3E
:10070000801B642873D828688003F7D50CE0FFF7B6
:100710003DFE064605E000BFFFF738FE801B64285B
:10072000F0D828688003F7D420789A4E80074FF0DD
:1007300001094FF0000839D5686810F00C0F07D098
:100740006868C0F38100022809D16868C00306D434
:100750002868800714D52069012808D110E0206995
:10076000B0B1C6F80090FFF711FE074605E00AE1B8
:10077000FFF70CFEC01B0228C4D828688007F7D5F5
:100780002868616920F0F80040EAC10028600DE0A7
:10079000C6F80080FFF7FAFD074604E0FFF7F6FD14
:1007A000C01B022823D828688007F7D420780007C8
:1007B0002CD57948A169D9B1C0F80090FFF7E6FDC2
:1007C000074604E0FFF7E2FDC01B02280FD8686A65
:1007D0008007F7D571484FF4FA510068B0FBF1F08B
:1007E000009000BF0098411E0091FAD20EE080E018
:1007F000C0F80080FFF7CAFD074604E0FFF7C6FD1A
:10080000C01B022875D8686A8007F7D42078400793
:1008100060D5E8690027C00008D4E86940F080503E
:10082000E861E869012700F0805000905C480168A9
:10083000C90513D40168834641F480710160FFF754
:10084000A5FD824606E000BFFFF7A0FDA0EB0A0071
:1008500064284ED8DBF80000C005F5D5E068012813
:100860000AD008B1052813D0286A20F001002862B8
:10087000286A20F0040002E0286A40F001002862A3
:10088000E06841F2883B98B1FFF780FD82460BE0BB
:10089000286A40F004002862EEE700BFFFF776FD0B
:1008A000A0EB0A0159455AD8286A8007F6D50CE012
:1008B000FFF76CFD824605E0FFF768FDA0EB0A013B
:1008C00059454CD8286A8007F6D41FB1E86920F052
:1008D0008050E861E06988B36968C1F38101022949
:1008E00044D00228C6F8608004D0FFF74FFD0446CC
:1008F00038E034E0FFF74AFD074604E0FFF746FD25
:10090000C01B02282BD828688001F7D4206AB0F5D4
:10091000803F05D16868A16820F400300843686012
:10092000D4E908010843696821F474110843686038
:10093000C6F86090FFF72AFD044606E025E000BFF8
:10094000FFF724FD001B022809D828688001F7D58D
:100950001BE000BFFFF71AFD001B022802D903208D
:10096000BDE8F88F28688001F4D40EE00128F7D0A4
:100970006868226A00F48031914204D1616A00F40F
:100980007010884201D00120EAE70020E8E700006B
:100990000010024000004242800442420C0000204D
:1009A0000070004010B5401EB0F1807F01D30120DF
:1009B00010BD4FF0E02460610F21601700F0DCF9FA
:1009C0000020A06107202061002010BD70B5040048
:1009D00004D094F83900002510B106E0012070BD64
:1009E00084F83850204600F023F8242084F8390099
:1009F0002068C16821F40051C160204600F004F96C
:100A00002068016921F4904101612068416921F069
:100A10002A0141612068C16841F40051C160E56369
:100A2000202084F8390084F83A00002070BD0000CE
:100A300070B586B000240094019402940394234E70
:100A40000368234902200322224DB34219D18B6946
:100A500043F480438B618B6903F4804304938B6977
:100A600043F004038B618969039201F0040104914E
:100A70000102CDE9001069462846FFF78BFB2815D7
:100A80001BE0154EB3421FD1CB6943F40033CB6159
:100A9000CB6903F4003304938B6943F004038B6147
:100AA0008969039201F0040104910421CDE9001049
:100AB00069462846FFF76EFB0820CDE90004694629
:100AC00028460294FFF766FB06B070BD003801406F
:100AD000001002400008014000440040FEE7000012
:100AE000104810B50E4901604FF4E131416000211A
:100AF00081600C22C160C0E904128161C161FFF70D
:100B000065FF07480C30016841F020010160252095
:100B100000F015F90121BDE81040252000F01CB9B6
:100B20000038014010000020104810B50E49016047
:100B30004FF4E1314160002181600C22C160C0E9C5
:100B400004128161C161FFF741FF07480C30016861
:100B500041F020010160262000F0F1F80121BDE8FC
:100B60001040262000F0F8B800440040500000205B
:100B7000FEE7704770477047FFF70EBC10B590B0A6
:100B800028216846FFF7D5FA14210AA8FFF7D1FA01
:100B9000022000900120049010200024059007946A
:100BA0006846FFF76FFD0F20CDE90A040C940D9401
:100BB00000210AA80E94FFF779FC10B010BD0000C8
:100BC0000D48016841F00101016041680B4A114084
:100BD000416001680A4A11400160016821F48021E6
:100BE0000160416821F4FE0141604FF41F01816002
:100BF0000449C00308607047001002400000FFF87D
:100C0000FFFFF6FE08ED00E02DE9F0410446006824
:100C10000169E26821F44051114301612169A06832
:100C20000843616908432168CA6841F20C639A432A
:100C30000243CA6020684169A26921F440711143EE
:100C400041611E49206864253226884202D1FFF79F
:100C5000D3FC01E0FFF7C0FC00EBC00101EB001189
:100C600060686FF018078000B1FBF0F2B2FBF5F29C
:100C7000B1FBF0F37A4303EB8202B1FBF0F306EB36
:100C80000212B2FBF5F2B3FBF5F302F0F00202EB55
:100C90000312B1FBF0F3B1FBF0F0B0FBF5F07843D9
:100CA00003EB800006EB0010B0FBF5F0216800F0CC
:100CB0000F0010448860BDE8F0810000003801405A
:100CC000F0B50D4DC0B000246E462F1D09E0386808
:100CD00030552868641CC008C00702D007A000F087
:100CE000C3F828684009C007F1D13055684600F0C4
:100CF000D3F840B0F0BD0000003801406F76657257
:100D000072756E206F6363757265640010B50A4B6F
:100D1000C0B0002069461A1F02E01C680C54401C39
:100D200014686409E407F8D100220A54084600F068
:100D30009BF840B010BD000004440040FEE70028CE
:100D400009DB00F01F02012191404009800000F101
:100D5000E020C0F8001170470907090E002804DBE5
:100D600000F1E02080F80014704700F00F0000F15F
:100D7000E02080F8141D70470907090E002804DBE5
:100D800000F1E02080F80014704700F00F0000F13F
:100D9000E02080F8141D704702E008C8121F08C147
:100DA000002AFAD170477047002001E001C1121FEC
:100DB000002AFBD17047000086B0FFF7F5FAFFF775
:100DC000DDFE00251D48009501950295039581697A
:100DD00041F010018161816901F010010491816984
:100DE00041F0040181618069154E00F004004FF468
:100DF00000540490002221463046FFF7C2FA012039
:100E0000CDE900400220CDE9025069463046FFF7A7
:100E1000C1F9FFF765FEFFF787FE0AA000F024F88E
:100E20000BA000F039F84FF47A7521463046FFF7F1
:100E3000A1FA2846FFF79CF9F7E7000000100240EE
:100E4000001001405374617274696E670D0A0000EE
:100E500053544D333266312068617320737461726C
:100E60007465640D0A00000010B50446002302E01A
:100E700000F008F85B1C002C02D0E05C0028F7D1E1
:100E800010BD000003490A681206FCD50149091D7E
:100E9000086070470038014010B50446002302E0A6
:100EA00000F008F85B1C002C02D0E05C0028F7D1B1
:100EB00010BD000003490A681206FCD50149091D4E
:100EC000086070470044004000000000000000007F
:100ED00001020304060708090000000001020304E0
:100EE000000F00080000002010000000980D00080E
:100EF000100F00081000002080040000A80D00085A
:100F00000100000010000000000000000024F400B8
:04000005080000ED02
:00000001FF
